:020000040000FA
:10C000003DB8F3960000000000020000D890000048
:10C010000000000000000000000000000000000020
:10C02000FFFFFFFFFFFFFFFFFFFFFFFFFFFFFFFF20
:10C03000FFFFFFFFFFFFFFFFFFFFFFFFFFFFFFFF10
:10C04000FFFFFFFFFFFFFFFFFFFFFFFFFFFFFFFF00
:10C05000FFFFFFFFFFFFFFFFFFFFFFFFFFFFFFFFF0
:10C06000FFFFFFFFFFFFFFFFFFFFFFFFFFFFFFFFE0
:10C07000FFFFFFFFFFFFFFFFFFFFFFFFFFFFFFFFD0
:10C08000FFFFFFFFFFFFFFFFFFFFFFFFFFFFFFFFC0
:10C09000FFFFFFFFFFFFFFFFFFFFFFFFFFFFFFFFB0
:10C0A000FFFFFFFFFFFFFFFFFFFFFFFFFFFFFFFFA0
:10C0B000FFFFFFFFFFFFFFFFFFFFFFFFFFFFFFFF90
:10C0C000FFFFFFFFFFFFFFFFFFFFFFFFFFFFFFFF80
:10C0D000FFFFFFFFFFFFFFFFFFFFFFFFFFFFFFFF70
:10C0E000FFFFFFFFFFFFFFFFFFFFFFFFFFFFFFFF60
:10C0F000FFFFFFFFFFFFFFFFFFFFFFFFFFFFFFFF50
:10C10000FFFFFFFFFFFFFFFFFFFFFFFFFFFFFFFF3F
:10C11000FFFFFFFFFFFFFFFFFFFFFFFFFFFFFFFF2F
:10C12000FFFFFFFFFFFFFFFFFFFFFFFFFFFFFFFF1F
:10C13000FFFFFFFFFFFFFFFFFFFFFFFFFFFFFFFF0F
:10C14000FFFFFFFFFFFFFFFFFFFFFFFFFFFFFFFFFF
:10C15000FFFFFFFFFFFFFFFFFFFFFFFFFFFFFFFFEF
:10C16000FFFFFFFFFFFFFFFFFFFFFFFFFFFFFFFFDF
:10C17000FFFFFFFFFFFFFFFFFFFFFFFFFFFFFFFFCF
:10C18000FFFFFFFFFFFFFFFFFFFFFFFFFFFFFFFFBF
:10C19000FFFFFFFFFFFFFFFFFFFFFFFFFFFFFFFFAF
:10C1A000FFFFFFFFFFFFFFFFFFFFFFFFFFFFFFFF9F
:10C1B000FFFFFFFFFFFFFFFFFFFFFFFFFFFFFFFF8F
:10C1C000FFFFFFFFFFFFFFFFFFFFFFFFFFFFFFFF7F
:10C1D000FFFFFFFFFFFFFFFFFFFFFFFFFFFFFFFF6F
:10C1E000FFFFFFFFFFFFFFFFFFFFFFFFFFFFFFFF5F
:10C1F000FFFFFFFFFFFFFFFFFFFFFFFFFFFFFFFF4F
:10C200008832002009E80000832A010069E8000064
:10C2100069E8000069E8000069E8000069E80000DA
:10C2200000000000000000000000000065E70000C2
:10C2300069E800000000000009E70000FF29010094
:10C24000C9E70000C9E70000C9E70000C9E700002E
:10C25000C9E70000C9E70000C9E70000C9E700001E
:10C26000C9E70000C9E70000C9E70000C9E700000E
:10C27000C9E70000C9E70000C9E70000C9E70000FE
:10C28000C9E70000C9E70000C9E70000C9E70000EE
:10C29000C9E70000C9E70000C9E70000C9E70000DE
:10C2A000C9E70000C9E70000C9E70000C9E70000CE
:10C2B000C9E70000C9E70000C9E70000C9E70000BE
:10C2C000C9E70000C9E70000C9E70000C9E70000AE
:10C2D000C9E70000C9E70000C9E70000C9E700009E
:10C2E000C9E70000C9E70000C9E70000C9E700008E
:10C2F000C9E70000C9E70000C9E70000C9E700007E
:10C30000C9E70000C9E70000C9E70000C9E700006D
:10C31000C9E70000C9E70000C9E70000C9E700005D
:10C32000C9E70000C9E70000C9E70000C9E700004D
:10C33000C9E70000C9E70000C9E70000C9E700003D
:10C34000C9E7000053B94AB9002908BF00281CBF3B
:10C350004FF0FF314FF0FF3000F070B9ADF1080C35
:10C360006DE904CE00F006F8DDF804E0DDE9022313
:10C3700004B070472DE9F047089E0D4604468A46F2
:10C38000002B7FD18A42174641D9B2FA82F24AB1D4
:10C39000C2F1200105FA02F39740944020FA01F11E
:10C3A00041EA030A4FEA17484FEA144C1FFA87F98B
:10C3B000BAFBF8FE08FB1EA30EFB09F14CEA03438F
:10C3C000994206D9FB1802D2994200F224810EF15B
:10C3D000FF3E591AA3B2B1FBF8F008FB101100FBA5
:10C3E00009F943EA0144A14505D93C1902D2A14506
:10C3F00000F20E810138A4EB090440EA0E4000214E
:10C400001EB1D4400023C6E90043BDE8F08702B95D
:10C41000FFDEB2FA82F2002A4FD1CB1B4FEA174E51
:10C420001FFA87F80121250CB3FBFEFC0EFB1C3024
:10C430002B4608FB0CF945EA0045A9450AD97D19A8
:10C440002CBF01230023A94502D9002B00F0D9807D
:10C450000CF1FF3CA5EB0905A3B2B5FBFEF00EFB0A
:10C46000105508FB00F843EA0544A04505D93C19DE
:10C4700002D2A04500F2C9800138A4EB080440EACA
:10C480000C40BDE78B4208D9002E00F0B18000219E
:10C49000C6E900050846BDE8F087B3FA83F1002934
:10C4A00046D1AB42C0F0A780824240F2A480084649
:10C4B000002EAAD0C6E9004AA7E7C2F120009740A3
:10C4C00001FA02F34FEA174EC14024FA00F51FFAB1
:10C4D00087F894401D43B1FBFEF02B0C0EFB1011AE
:10C4E00000FB08FC43EA01439C4509D9FB182CBF1B
:10C4F000012100219C4502D9002900F095800138D6
:10C50000A3EB0C03ADB2B3FBFEF10EFB113301FB49
:10C5100008FC45EA0345AC4505D97D1902D2AC4576
:10C5200000F289800139A5EB0C0341EA00417AE76A
:10C53000C1F120048B4002FA01F705FA01FCE24048
:10C5400020FA04F8E54000FA01FE134348EA0C0221
:10C550004FEA13484FEA124C1FFA83F9B5FBF8FA79
:10C5600008FB1A550AFB09F04CEA054C60450AD94C
:10C5700013EB0C0C2CBF01250025604501D9002DC3
:10C5800055D00AF1FF3AACEB000C92B2BCFBF8F0CC
:10C5900008FB10CC00FB09F942EA0C4CE14505D937
:10C5A00013EB0C0C01D2E1453BD8013840EA0A40BC
:10C5B000ACEB090CA0FB0789CC4545464A4602D3A3
:10C5C00006D1C64504D20138B8EB070569EB030272
:10C5D0002EB3BEEB05036CEB020C23FA01F20CFA4E
:10C5E00004F42CFA01F300211443C6E900430CE7DC
:10C5F0003146304609E7841A65EB030301209A4669
:10C6000056E7ACF1020C3D4424E702383C4434E7E1
:10C6100002383C44EFE6AEF1020E3B44D9E6314627
:10C62000F3E602389C44C1E702383B4468E7AAF1CC
:10C63000020A9C44A7E702393D4474E7704700BFF3
:10C640000022044BC3F80821C3F81021C3F80021CD
:10C65000704700BF00A002402DE9F84F08F0FBF83A
:10C660004FF47A780B4640F2CF760027A0FB080102
:10C6700008FB03114FEAD039DFF86CA049EA4149C1
:10C680004FEAD13B08F0E7F80B46A0FB080108FB96
:10C690000311C30B43EA4143B3EB09044FEAD13220
:10C6A00062EB0B05A64277EB05030ADA0020014690
:10C6B000FFF7C6FFA8B9002908BF6FF00400BDE866
:10C6C000F88FDAF8080148B9DAF8101139B9DAF850
:10C6D0000031002BD6D04FF0FF30E9E700200121D8
:10C6E000E6E74FF0FF30EAE700A0024010B504464D
:10C6F000FFF7A6FF01220E4B5A60FFF7ADFF78B996
:10C700000C4B0D491B681A688A420AD001318A42D3
:10C710000AD01B689C4203D0002C18BF6FF00100A8
:10C7200010BD6FF00300FBE76FF00200F8E700BFF9
:10C7300000A00240980600200100005A014B187822
:10C74000704700BF000000202DE9F74F8B18074607
:10C750004948013B834200F28B8042F20B039A422C
:10C7600040F286804548464B82429FBF0C3A22F4F5
:10C77000FF5222F01F020C328CBF18601A601A6838
:10C78000404BA2F10C00186001234FF000084FF05D
:10C790000009002507263C4C3C4823703C4BC4E96B
:10C7A0000289C4E904890160C3F8A858009005F51E
:10C7B000E0700135202D43F82060F8D108204FF0BB
:10C7C0000208344B0192C3F81485C3F81C053248A3
:10C7D0004FF0100C40F08076C3F810664FF0010B5C
:10C7E00000264FF0040AC3F81466C3F890B5C3F8E6
:10C7F00098A5C3F8A0C5FFF723FFFFF721FF6FF04F
:10C800007F03019ADFF8989041F0807106704670BE
:10C8100080F802B0C3704160826005F097FBC9F8F0
:10C82000006005F093FBC9F800B005F08FFBC9F874
:10C83000006005F08BFBFFF70FFF064628B184F878
:10C8400000A0304603B0BDE8F08F009B1968134B81
:10C850000A689A4204D06FF0010684F800A0F0E75D
:10C860002A463846043106F065F984F80080E8E786
:10C870006FF00506E5E700BFFFFF01200C00010097
:10C88000A00600209C060020000000209806002042
:10C890000030005000A0024070010020010000A5FF
:10C8A000105600502DE9F04B154D04462B78022B05
:10C8B0001FD1D5E904BC00274268124B1BEB0208CC
:10C8C0001E684CF100094F4508BF464514D30E4B76
:10C8D00081681B680BEB030006F02CF9D5E90423F3
:10C8E00000206168521843F10003C5E90423BDE844
:10C8F000F08B6FF00600FAE76FF00500F7E700BF76
:10C90000000000209C060020980600202DE9F04F32
:10C910004C4C0546237885B0032B40F08D80016890
:10C92000002900F08C80D4E90423CDE900231343CF
:10C9300088464FF0000901D1C4E90289D4E9020117
:10C94000009B13EB000A019B43EB010BCB4508BF97
:10C95000C2450AD14FF00008DFF8F4A0DFF8E890F4
:10C960006A6890451ED3002019E0DDE900231343D7
:10C97000F0D00321344B009A1B68196058609A600C
:10C980003248FFF7B3FE2B680022A3600023E36068
:10C990000023C4E904230028DCD00423237005B05D
:10C9A000BDE8F08F0023D4E90401DAF800C0A2EB5F
:10C9B0000802BCEB000661EB4107BB4208BFB24274
:10C9C0003CBF16461F46D9F80030A9680C334144D5
:10C9D0003246184406F0AEF8D4E90432F318029354
:10C9E00047EB02030393DDE90223C4E90423DDE9F5
:10C9F00002010023DAF80020994208BF9042B044B7
:10CA0000AED30321D9F80030A26819605A60029AA7
:10CA10000E489A60FFF76AFED4E9023221695B187A
:10CA2000616941EB0202C4E9023200220023C4E939
:10CA30000423002894D0B0E76FF00600AFE76FF052
:10CA40000500ACE70000002098060020050000A5C6
:10CA50009C060020064A1378023B012B04D80020D4
:10CA60000021C2E9040170476FF00600704700BF63
:10CA70000000002070B5134C2278931E012B1ED8A5
:10CA8000D4E9045655EA060303D10323002023709A
:10CA900070BD032A03BF0C4BA1681B68002001BFB7
:10CAA0001A600A4859609D60FFF720FE00220023AB
:10CAB000C4E904230028E8D004232370E8E76FF0DA
:10CAC0000600E5E70000002098060020050000A50C
:10CAD000F8B51F4E17463378032B33D1FFF7B0FD5F
:10CAE00007231C4D01F1010C2A6800241360ACEBF4
:10CAF0000003B3F5803F28BF4FF4803388420AD348
:10CB00001CB354601448FFF7F1FD044698B10423A8
:10CB100033702046F8BD02EBC40ECEF8080018446E
:10CB2000CEF80C30ACEB0003B3F5803F28BF4FF4D8
:10CB300080330134E2E7296820223846043105F0C9
:10CB4000F9FFE6E76FF00604E3E76FF00504E0E7BE
:10CB50000000002098060020070000A538B508490D
:10CB6000054605F001FA002304460022284607F096
:10CB7000A6F854EA000314BF0220002038BD00BF0D
:10CB8000084E01002DE9F04DB2B080468C22002104
:10CB90000FA805F0FAFF2A4B02220E9302AB0026E3
:10CBA00000271093012327498DF83C201A918DF816
:10CBB0006C200EA904AA08F11C00CDE90267CDE99A
:10CBC00004678DF864301C928DF8943006F021FED5
:10CBD0000446002832D1DDE90223CDE900231343C6
:10CBE0002CD0DDE904AB5AEA0B0327D0514600985C
:10CBF00006AAFFF76DFF20B132B0BDE8F04D05F099
:10CC0000AAB91149404605F0AFF92022054606A908
:10CC1000404607F062F80D490543404605F0A4F987
:10CC20003B4605433246404607F049F855EA0003C3
:10CC300018BF0224204632B0BDE8F08D0324F9E786
:10CC40000B4E0100114E0100154E0100084E01006F
:10CC50002DE9F043E3B005464FF4A87200210EA879
:10CC600005F093FF574B03220E934FF4FC73189378
:10CC7000554B8DF83C208DF8CC2020221A930223AE
:10CC80003C92524A8DF86C308DF89C308DF8FC3017
:10CC900004AB3E9240934FF0FF324FF0FF3302A9B6
:10CCA0004B4C1C914B490126269104F502712891A9
:10CCB0004949CDE9022332910021C4E982230022AF
:10CCC0000023C4E9001101AF009105F11C00396097
:10CCD00004F10C090DF118080EA9CDE90423CDF8D3
:10CCE0004090CDF844D08DF894608DF8C460CDF8B4
:10CCF000D08035978DF8246106F08BFD054620B174
:10CD00000325284663B0BDE8F083D4E98223591C8B
:10CD100008BFB2F1FF3FF3D0DDE90401012908BFEC
:10CD20000028EDD2009920602C4852EA030CC4E997
:10CD300001198146017834D1A9BBDDE90201013135
:10CD400008BFB0F1FF3F84F81162D9D03A68202AB9
:10CD5000D6D84146C9E9015009F10D0089F80C20E7
:10CD600089F8006005F0E6FE3A68294602F10D00F8
:10CD70004844C2F1200205F008FF6268D9F8043087
:10CD80001344D9F808209342BAD84FF0000204BFE8
:10CD900089F800200122C9F8043084F81022002309
:10CDA00009E00029ACD00021D9F804008B4208BF6B
:10CDB000824203D0012384F81232A2E7002384F8D0
:10CDC0001132DAE71C4E0100214E01002D4E010008
:10CDD000A8020020254E0100294E0100A4060020D3
:10CDE00038B50E49054605F0BFF800220023044679
:10CDF000284606F064FF0A490443284605F0B4F8C3
:10CE0000084B04435A682846002306F050FF54EAB2
:10CE1000000314BF0220002038BD00BF084E0100EF
:10CE2000254E0100A406002070B50446FFF786FCDD
:10CE3000042805461ED02046FFF70AFFD8B9174B35
:10CE400093F812221E4622B12046BDE87040FFF73B
:10CE5000C7BF5A68002AF7D093F8113233B1FFF7F1
:10CE6000F9FD18B1BDE8704005F075B8022D03D08A
:10CE7000032D0FD0062070BD0848FFF713FD0028D2
:10CE8000F0D196F81032002BDED0FFF7F3FD00282A
:10CE9000DAD0E7E70148FFF739FDF0E7A802002004
:10CEA00000B589B0084942F20C026846FFF74CFC15
:10CEB0000022064B0648C3E901221A701A7303F0D8
:10CEC00011FC09B05DF804FB340E0020A40600201C
:10CED0001800002013B503F0FFFB0222094C0A4B97
:10CEE000042101932046094B009205F0E3FCA3695D
:10CEF00003F50073A361E36903F5FC73E36102B01A
:10CF000010BD00BFD4060020324E01004D4E01007E
:10CF10002DE9F0430546079810B91060BDE8F0838D
:10CF20000324B0FBF4F404EB4407B84218BF013407
:10CF3000B4F1804F05D34FF0FF3313606FF00B0057
:10CF4000ECE7A40001348C4200D80DB91460F5E779
:10CF50002E460024DFF8B4E0BC4231469C4606F180
:10CF6000040603F1030329D3844222D2013484420C
:10CF700028BF00239CF80060244F38BF9CF8013084
:10CF80004FEAA60C17F80CC0844281F800C007EBEA
:10CF9000131C2FBF3D239B0003F03C03FB5C3601B9
:10CFA0008B703D2306F030061CF80660CB704E7087
:10CFB000043100204D1B15600870AFE713F803CC57
:10CFC00013F8021C4FEAAC091EF809904FEA0C1C3A
:10CFD00013F8018C0CF0300C06F8049C0EEB1119C0
:10CFE00019F80CC0890006F803CC01F03C010EEBE7
:10CFF000981C1CF8011008F03F0806F8021C1EF8E7
:10D000000810033406F8011CA6E700BFD94E010042
:10D010004FF0000C2DE9F043074665466046079E39
:10D02000DFF82081B5420AD32E4604E00135AE4236
:10D030000EF1010E05D1A8BB1060BDE8F0834FF0E2
:10D04000000E5C5D202CF1D0AE42F4D0A6EB0509B9
:10D05000B9F1010F15D90D2C13D103EB050999F87E
:10D060000190B9F10A0F1BD0BEF1000F06D13D2C83
:10D0700009D10CF1010CBCF1020F07D96FF01500BA
:10D08000DBE70A2CEFE714F0800FF7D118F8044023
:10D090007F2CF3D03F2C02D8BCF1000FEED1013031
:10D0A0000135BFE7062500F007046C4304F1070EC5
:10D0B000C4086C43A4EB0C0404EBDE0487B18C427F
:10D0C0000ED80025394603242846DFF878E0DFF83B
:10D0D00078801E449E4207D1C91B00201160ACE736
:10D0E0006FF00B001460A8E713F8019BA9F10A0C7C
:10D0F0005FFA8CFCBCF1160F04D828FA0CFC1CF06B
:10D10000010FE7D11EF809C00130BCF1400F08BF84
:10D11000013C0CF03F0C04284CEA8515DAD17CB1B7
:10D12000280C012C087002D101310020D2E7022C1A
:10D130004FEA1520487016BF8D7002310331F4E7B5
:10D140002046C7E7594E0100090040000B68013333
:10D150000B60014B1B68184724000020014B18602E
:10D16000704700BF2400002007B50B46002102468F
:10D170000191034801A900F0EBF803B05DF804FB4E
:10D180004DD100002DE9F84FB0F81890044619F081
:10D19000080893460DD001290CBF49F0100949F049
:10D1A0002009A0F818908BF31188BFF36F8FBDE8AA
:10D1B000F88F09F00709022907D1204604F03BFF48
:10D1C0000028F0D00128238B50D16769218B002FD4
:10D1D00015DA256821F00701C4E9008841F0010152
:10D1E00021830026218B01F0070ACA4502D0A368DB
:10D1F000002B5CD10DB9002E74D0002358E001F053
:10D2000007035A1F012A20D821F00701062B2568A1
:10D2100089B2C4E900880CD1002D2B4638BF002309
:10D220002BB1628B1B6801326283002BF8D141F075
:10D2300002012046218304F0FEFE06460028D1D0DC
:10D24000238B43F020032383CBE7042B0CD121F065
:10D25000070189B22046218304F0EDFE054600282F
:10D26000BFD041F0200121830025BAE7032809D16E
:10D27000226923F00703166843F006030025238381
:10D280002F46AFE7042806D1226923F0070356682A
:10D2900043F00403F2E7052806D1226923F00703CF
:10D2A000966843F00503E9E700252E46E8E70123E9
:10D2B00041F0080121838BF31188BFF36F8F03BB0B
:10D2C000002D33D116B120462049B0474FF020033E
:10D2D000EFF3118B83F31188BFF36F8F238B23F050
:10D2E00008032383238BDA0628D5012123F01003BA
:10D2F0002383B4F8189009F0070900297FF45BAF85
:10D3000051E7A1680029DBD00B68002B38BF002350
:10D31000994652463B462046D1F804B0D847B9F169
:10D32000000FCDD04946D9F80030EEE729463B46FC
:10D33000524620462D6804F09AFEC1E713F0200102
:10D340001EBF23F0200302212383D2E79B2001008C
:10D350002DE9F04F8B4692461C46002591B0029075
:10D360009AF8000008B928465EE325280AF101076B
:10D3700007D05946029B98470028C0F255830135D3
:10D3800010E2182200210AA805F0FFFB9AF80130EC
:10D39000252B78D0002294461646964610463946EC
:10D3A00017F8013B2B2B00F09D8000F29480202B7E
:10D3B00000F09B80232B00F09A8028B19DF830006C
:10D3C00040F004008DF83000BEF1000F05D09DF84C
:10D3D000300040F008008DF830002EB19DF830008C
:10D3E00040F010008DF83000BCF1000F05D09DF822
:10D3F000300040F020008DF830002AB19DF8302038
:10D4000042F040028DF830209DF8302002F04400B8
:10D41000442803D16FF386128DF830209DF8302018
:10D420002A2B42F080028DF830207BD19DF83120EC
:10D430004B1C42F001028DF831201A782E2A0CBFC5
:10D44000012100219DF8312061F341028DF8312046
:10D4500074D15A782A2A6AD000210A260133184644
:10D4600010F8012BA2F13007092F40F28E809DF8B1
:10D4700030200E91C2F3400040EAD17161F34102C5
:10D480008DF830205AE00AF102078DF833309DF80C
:10D490003130D90740F1498154F8049BB9F1000FAC
:10D4A00007DA9DF83020C9F1000942F004028DF836
:10D4B00030205A0740F1428154F8048BB8F1000F34
:10D4C00080F241819DF831306FF341038DF83130A6
:10D4D0004FF0FF3837E12D2B0CD0302B7FF46DAFA0
:10D4E00001225CE74FF0010E59E7012657E74FF0A4
:10D4F000010C54E7012052E733460CFB0202303A9C
:10D500001E4616F8010BA0F13007092FF4D99942F5
:10D5100093D09DF830100D92D20F62F341018DF837
:10D5200030108AE70B4600224FF00A0CE8E79DF81E
:10D530003120023342F004028DF831201F4617F8E3
:10D54000012B6C2A41D025D8682A2BD06A2A46D0D4
:10D550004C2A4CD01F4617F8012B9DF83130782A01
:10D560008DF8332000F2D980572A4DD8412A03D0B4
:10D57000453A022A00F2D18004229DF8323062F34B
:10D5800002038DF8323001239EE006FB01210346A1
:10D59000303964E7742A26D07A2ADBD106229DF836
:10D5A00031300DE05A78682A9DF8312006D10121EA
:10D5B00061F3C6028DF831209F1CCCE7134602228E
:10D5C00062F3C6038DF83130C5E75A786C2A9DF8AE
:10D5D000312001D10421EBE713460322F0E70522B5
:10D5E0009DF83130ECE707229DF83130E8E7BDF8CF
:10D5F000303023F4F04323F0020343F4804343F03C
:10D600000203ADF83030A6E7A2F15801202900F25C
:10D61000848001A050F821F0DDD600001BD7000067
:10D620001BD700001BD700001BD700001BD7000032
:10D630001BD700001BD700001BD7000079D50000C6
:10D640001BD70000DDD600009DD6000079D5000074
:10D6500079D5000079D500001BD700009DD60000C9
:10D660001BD700001BD700001BD700001BD70000F2
:10D67000E5D60000DDD6000001D700001BD7000072
:10D680001BD7000001D700001BD70000DDD600002B
:10D690001BD700001BD70000DDD6000001209DF83D
:10D6A000321003F0780360F30201402B8DF8321042
:10D6B00002BF9DF8301041F001018DF83010632A4F
:10D6C00031D1003B18BF01239DF83020C2F3400147
:10D6D0000B4363F341028DF83020D8E602209DF819
:10D6E0003210DEE703219DF8322003F07803A3F126
:10D6F000400061F3020243428DF832204341E3E7E8
:10D7000003219DF8322013F0780F61F3020214BF59
:10D71000012300238DF83220D6E79DF8303043F006
:10D7200001038DF830300023CEE79DF93020002A28
:10D73000ACBF4FF0FF39DDF83490BAE69B077FF5B8
:10D74000C7AEDDF838800023CDE90D339DF83230C7
:10D750009DF8312003F00703012BC2F3C30236D139
:10D76000D31E042B20D8DFE803F00307071F1F0098
:10D7700054F8040BC11704E0073424F00704F4E85C
:10D780000201CDE90A019DF8303013F0030654D0B0
:10D790003B4652465946029804F0F9FF0028C0F271
:10D7A00043810544BA46DBE554F8040B012A4FEAED
:10D7B000E071CDE90A0105D19DF828300A930023D4
:10D7C0000B93E0E7022ADED1BDF92800D2E7022B55
:10D7D00023D1D31E042B13D8DFE803F0030A0A1267
:10D7E000120000212068231D0A900B911C46CAE7F5
:10D7F000073424F00703F3E80201CDE90A01F5E755
:10D8000054F8043B012A0A934FF000030B93D3D042
:10D81000022AB8D1BDF82830D0E7042B07D107344D
:10D8200024F00704F4E80201CDE90A01ABE7032B79
:10D8300004BF54F8043B0A93A5E79DF83300782809
:10D84000B0D8622822D825283FF493AD5828A9D112
:10D85000DDE90A010DF1260300930CAA04AB04F0E4
:10D860004BFF8246B8F1000F0DF126000CDB9DF84E
:10D870003020A0EB0A036FF3861298458DF8302014
:10D8800002D9A8EB03030D9380463DE063381528C9
:10D8900088D801A151F820F019D900007DD90000E5
:10D8A000A5D70000A5D70000A5D70000A5D7000088
:10D8B0007DD90000A5D70000A5D70000A5D700009E
:10D8C000A5D70000DBD90000A9D90000ADD9000020
:10D8D000A5D70000A5D70000F1D80000A5D700000B
:10D8E000A9D90000A5D70000A5D70000A9D900003C
:10D8F000B8F1000FDDF828A00ADB4146504605F0DC
:10D90000F4F800260AEB0008BAF1000F0CD149E741
:10D91000504605F0E3F8F4E700260A9B0DF11108E4
:10D920008DF810300DF1100AA8EB0A0306B101338F
:10D930009DF83220D0066BD5023352060D9948BFB0
:10D940000E9A0B4448BF9B18B9F1000F79DD9DF882
:10D950003020A9EB0309C2F380030393530770D46B
:10D96000500664D546B159463046029B9847002878
:10D970005ADB039B01351E46302359E01E0711D4A4
:10D9800013F0100618BF2026DDE90A23002A73F1E0
:10D990000001BFF65DAF524263EB43032D26CDE994
:10D9A0000A2355E72B26EFE7002651E70A9848B3EC
:10D9B0000DF126030093002104AB0CAA04F09CFE99
:10D9C000BDF83230824603F0EF0343F4F04343F0F6
:10D9D00010030026ADF8323044E70A9B072A3FF6D1
:10D9E000E1AEDFE802F00D04060D08080D0D1D7014
:10D9F000D8E61D80D6E62846E917C3E90001D1E63E
:10DA00001D60CFE6DFF8C4800646A8F1050A8BE763
:10DA1000110748BF013390E7184603935946029B0C
:10DA200098470028039B04DA11B0BDE8F08F20234B
:10DA30004D444A46002AA5EB090109F1FF39EBDC08
:10DA40000D4636B159463046029B98470028EBDB1D
:10DA500001359DF83230D90601D41A0706D559464A
:10DA60003020029B98470028DEDB01359DF83230DC
:10DA7000DB0607D559469DF83300029B98470028DE
:10DA8000D2DB01350D9E2E44731B002B16DC434662
:10DA900052465946029804F07AFE0028C4DB054439
:10DAA000A944A9EB0503002B7FF77CAE5946202043
:10DAB000029B98470028B7DB0135F2E75946302032
:10DAC000029B98470028AFDB0135DDE71E4F0100C0
:10DAD000044608B54FF02002EFF3118382F311885A
:10DAE000BFF36F8F04F08DFF204600F0A9FF0348BD
:10DAF00004F094FA00F04CFEFCE700BF1F4F010059
:10DB00004FF02002EFF3118382F31188BFF36F8F80
:10DB10000121044AC2F8401583F31188BFF36F8FC7
:10DB2000002070470090035020B1034B800143F068
:10DB300001031847704700BFB04B010084B004AB2D
:10DB400003E907009DF80430062B07D10122044B9E
:10DB5000C3F80025BFF34F8F20BFFDE704B0704727
:10DB600000400050F8B505464FF02003EFF3118652
:10DB700083F31188BFF36F8F0B4B1C68002C38BFE9
:10DB800000245CB1094FD4E90132002D08BF1346CF
:10DB90000BB1387898472468002CF4D186F31188AB
:10DBA000BFF36F8FF8BD00BFF4060020FC06002015
:10DBB000084B10B51C685CB901221A60064B93E84B
:10DBC000070004F0FDFD2046BDE81040FFF7CABF86
:10DBD00010BD00BF28000020FC060020F0B585B075
:10DBE0006E46184C01460546304604F0F4FD96E8B2
:10DBF000070084E80700207808B30021124B196061
:10DC00006B1C0ED017464FF4004600210F4800232E
:10DC1000E6FB07010E4AFEF795FB0121281A06F0E4
:10DC2000FCFD03F0E7FA0120FFF79CFF94E80700F2
:10DC3000FFF784FFFFF7BCFF03F0CEFB207805B0B1
:10DC4000F0BD00BFFC060020280000203F420F006E
:10DC500040420F0010B9024B186870474069704786
:10DC60000807002038B50546064B1C680CB920464D
:10DC700038BD2946206804F041FF0028F7D06469C8
:10DC8000F4E700BF08070020F8B5002206460C465E
:10DC90000A4F3D6825B95AB93C6000202660F8BD9E
:10DCA0003146286804F02AFF20B12A466D69F1E761
:10DCB0005461F2E76FF07700F1E700BF080700203A
:10DCC00010B5074802F08EFD064C074B1860204641
:10DCD00001F086F82046FFF741FA002010BD00BF92
:10DCE000484F0100EDDC00000C0700200A2838B581
:10DCF0000446074D04D1286883680D215B68984766
:10DD000028688368E1B25B689847204638BD00BF49
:10DD10000C07002070B50446064E4518AC4201D1F0
:10DD2000002070BD306814F8011B83685B68984759
:10DD3000F4E700BF1407002007B5019001A90348CC
:10DD400006F029FB03B05DF804FB00BF0C020020C5
:10DD50002DE9F047364D8AB0364E0DF108093446AC
:10DD600007E0206883685B6B8BB9206883689B69D8
:10DD70008BB9306883685B6C002B4DD12068836859
:10DD80001B6C002BEDD098470028EAD147E098475C
:10DD90000028EED0E9E720224946984707460028A8
:10DDA000E7D00026244CBE42D6DA2B7819F806803C
:10DDB0007BB9D4F800A0BAF1000F17D100220023DC
:10DDC0001E4801A902F018FE48B1C4F800A00123C2
:10DDD0002B70B8F10A0F1DD100232B701AE0019BA4
:10DDE000C3F8040223602B78002BF2D12068D0F80E
:10DDF0000432B3F5007F04D3FFF79EFF00232360B6
:10DE0000E5E75A1CB8F10A0F0344C0F8042283F86E
:10DE1000048007D00136C6E798470028AED10AB083
:10DE2000BDE8F08700232360054B1B689847F1E7A6
:10DE3000402E002014070020100700200C020020B4
:10DE4000180700200023014A05F08EB815DD0000F8
:10DE5000154B13B51860154802F0C4FC144B04466A
:10DE60001860F8B18368DB6A03B19847A3681B6A3E
:10DE70000BB120469847A3689B6933B10122204625
:10DE80000DF1070198470028F5D1A3682BB19B6CD1
:10DE90001BB10022204607499847A3689B6A0BB133
:10DEA0002046984702B010BD180700204F4F0100D0
:10DEB0001407002051DD00000E4A70B5841A054693
:10DEC0000C200E464021A3100B4C5C43E4B200FB37
:10DED0000420084404F008FD011E05DB074B03EB9A
:10DEE000C40463689847002128463346BDE8704063
:10DEF000184700BF30070020B76DDBB6FC4B0100B0
:10DF00002DE9F0410C25104E8046841BA3100F4CC8
:10DF10000F465C43E4B2654305F1400040213044C4
:10DF200004F0FBFC011E09DB094A7319C3E90E2743
:10DF3000084B53F83430BDE8F041184740463B46A3
:10DF4000BDE8F041184700BF30070020B76DDBB6D1
:10DF50007D290100FC4B010070B50022012104461F
:10DF6000052000F06FFB052000F04EFB0F4801F08C
:10DF7000DDFE0F4B984215D105F061FA26690D4977
:10DF8000304604F0A7F800280BDB0125356424692E
:10DF9000084904F11C0004F09DF8002801DB002072
:10DFA000E56470BD6FF00400FBE700BFEDDF00002B
:10DFB0000000AD0B0C4C010001460C2300224B432A
:10DFC000084870B5C4184033D4E90E561844A2630B
:10DFD00004F0C1FC2DB132462B46BDE8704002482A
:10DFE000184770BD300700207C01002010B10128C7
:10DFF00004D07047034B1B6C5B0701D1FFF7DCBFFC
:10E00000704700BF3007002008B54FF02003EFF342
:10E01000118183F31188BFF36F8F124A136843F0A5
:10E02000020013F0010310600CD04FF05022D2F820
:10E030000C34D2F80C2413F0010303D00A4804F086
:10E040008AFC012381F31188BFF36F8F23B1BDE8F0
:10E0500008400020FFF7B0BF0120BDE8084001F0F4
:10E0600075BE00BF8007002070070020074BD3E873
:10E07000EF2F22F00201C3E8E01F0028F7D1D307F9
:10E0800002D4012001F094BE704700BF8007002039
:10E090001FB500220123CDE902236B46084ACDF8C3
:10E0A00000D0CDF804D004F08FFC002805DB4FF43D
:10E0B00080420023684602F0EDFE05B05DF804FBE7
:10E0C0009B2901002DE9F843012206463949D1E890
:10E0D000EF3FC1E8E02F0028F9D133B9364937487E
:10E0E0004B60CB608A6004F008F8731E012B32D8B5
:10E0F000012E07D14FF05023D3F81C3403F0030353
:10E10000022B28D006F071F9044618B92C4B1B7865
:10E11000002B47D14FF02003EFF3118583F31188D3
:10E12000BFF36F8F0124274FDFF89C80DFF89C90AE
:10E130004FF05022D2F81834D2F81824D2030CD55C
:10E1400003F00303022B01D0012E06D124B385F383
:10E150001188BFF36F8FBDE8F883C4B1284600F083
:10E1600025FB4FF05022D2F81835DBB2012BDFD15E
:10E1700039680029DCD00021396039680221C2F8F1
:10E1800018152022C8F88021C9F80030D0E70021F6
:10E19000212003F0BDFAE4E74FF050230222C3F838
:10E1A0000423D8E74FF0502302220546C3F8082382
:10E1B000B9E700BF84070020200700204C0700209B
:10E1C000832E00200451005000E100E00850005070
:10E1D000044A1368C81A20F07F400344136003F018
:10E1E00029BC00BF980700202DE9F0474FF4803785
:10E1F0004FF00009860000F1500406F15026A400FB
:10E2000006F58036A4B204F15024D6F84035DFF884
:10E210006C8021F07F4504F580348740D8F804A550
:10E22000A3EB0A0323F07F432AF07F42012BC6F8B9
:10E23000402502D1132006F010FB0AF10202AB1AAE
:10E2400023F07F43B3F5000F88BF1546C4F8009054
:10E25000236825F07F43C8F84473C6F84035D8F8E2
:10E2600004359A4506D0EB1A023B23F07F43B3F501
:10E27000000F01D8BDE8F0872B46CFE700500150D2
:10E28000F8B5002427460F4E0F4B104A18461D685C
:10E2900004B1F8BDD2F80413C903FAD531680029D6
:10E2A000F7D0346031684FF48031C2F8481301244C
:10E2B000D2F8401525B100205A681F60A847E3E74F
:10E2C0000560E6E7405101508C07002000500150E6
:10E2D00038B500244FF480334FF400120D4D012166
:10E2E000C5F80845C5F804330B4B1520C3F8802149
:10E2F000224600F0A7F9152000F086F90123074A0D
:10E3000002201360064A2B601360FFF7DBFE2046F5
:10E3100038BD00BF0050015000E100E0085001503E
:10E3200094070020134BB0F1FF3F08BF1846013897
:10E3300000281CDD9842A8BF18460F4BD3F80425CF
:10E340000E4B1968521A12F4000F18BF002022F069
:10E350007F4301330A4A03440A481060002050609A
:10E36000044A934294BFC9188918FFF73DBF0020A3
:10E37000E3E700BFFFFF7F00005001509807002037
:10E380008C070020D1E10000044BD3F80405044BB6
:10E390001B68C01A20F07F40704700BF005001503A
:10E3A00098070020034610B588B08DF807300DF1AE
:10E3B000070302930123094ACDE90513106803936B
:10E3C000002207238DF810208DF81C30836802226C
:10E3D0005C6802A94623A04708B010BD9C07002036
:10E3E00070B586B00E460DF1070105461446FFF7DD
:10E3F000D9FFC0B90D4B9DF80720186802AB0393F5
:10E40000022322EA060222438DF807208DF80850E5
:10E410008DF8092004938DF81430836801225C681C
:10E4200003A94623A04706B070BD00BF9C0700208B
:10E4300008B502F0D7F9044B002818600CBF6FF044
:10E440001200002008BD00BF9C070020014803F017
:10E4500007BC00BF184C010008B5B0B14368042BDD
:10E460000DD100220368D3E8EF1F012903D1C3E8CF
:10E47000E02F0028F7D1074808BF104608BD3BB180
:10E48000006802F069FC0020F8E76FF4E040F5E76F
:10E490000148F3E7E98FFFFFEA8FFFFF10B504465D
:10E4A00018B90D4B0D485B689847616808290DD075
:10E4B00031F004030AD011F0020108D021460848C7
:10E4C00005F069FF002323600023636010BD142260
:10E4D000206804F05AFBF7E710010020664F0100A6
:10E4E000A007002010B5044618B9164B16485B6803
:10E4F00098476368042B23D0082B21D0CBB923681D
:10E50000BBB94FF0FF324FF0FF3321460F4802F006
:10E5100073FA08B923681BB90A4B0D485B68984722
:10E5200014220021206804F030FB636843F00203EA
:10E530006360206805F06BFF636843F0010363606C
:10E5400010BD00BF10010020664F0100A007002091
:10E550008C4F010008B5E8B14368042B0CD10122AF
:10E560000368D3E8EF1F002903D1C3E8E02F002898
:10E57000F7D10BD1002008BD53B100684FF0FF3236
:10E580004FF0FF3302F070FB0028F3D00348F2E7AE
:10E590000348F0E76FF4E040EDE700BFE98FFFFFCD
:10E5A000EA8FFFFF08B5064940231422054805F00D
:10E5B000D7FEBDE808400449044803F0A3BB00BFF0
:10E5C000BC070020A0070020304C0100204C0100B7
:10E5D0000A4A0B4993680968C3F88800C3F88C108D
:10E5E00008494B6843F080534B60002383F3118844
:10E5F000BFF36F8F9368D3F88C007047D00D002065
:10E600007C4D010000ED00E043B2002B08DB01224D
:10E6100000F01F0002FA00F0024A5B0942F82300F2
:10E62000704700BF00E100E0054B420953F822208B
:10E63000012300F01F0003FA00F01040704700BFF4
:10E6400000E100E043B2002B01F10101ACBF03F196
:10E650006043064B4FEA4111C9B2ABBF03F56143BA
:10E6600000F00F0083F800131954704714ED00E018
:10E6700042F8203C009B0B4942F81C3C019B21F0D6
:10E68000010142F8183C029B42F8081C42F8143C75
:10E690004FF0807342F8043C0023203A0265C0F832
:10E6A000883070478D210100084B9860836F83F399
:10E6B0000B88104681F30988002163B681F3118825
:10E6C000BFF36F8F0022002303F060FDD00D002008
:10E6D0000B4A08B50B4B22F07F029A60BFF34F8FB5
:10E6E000BFF36F8FD3F8882022F47002C3F888201C
:10E6F00002F0A4F803F0ACF800F0EAF902F0C2F876
:10E7000000C2000000ED00E014498A684FF03000BC
:10E710001044EFF3098C80E8F01F202080F311886B
:10E72000BFF36F8F0E4F4FF000664A6A8A603E60FB
:10E73000D2F888000023C2F8883080F3118802F1F3
:10E74000300090E8F01F8CF3098802F1000004B556
:10E7500004F08DF9BDE8044070470000D00D0020A2
:10E7600004ED00E01EF0040F0CBFEFF30880EFF3A0
:10E770000980816911F8021C0229FFD001B504F05B
:10E780007CF901BD014910220A60704710ED00E0DC
:10E7900072B6404080F31188BFF36F8FBFF34F8F85
:10E7A00030BF62B6BFF36F8F704700BF72B649408B
:10E7B00081F3118820BF80F3118862B6704700BFD3
:10E7C00030BFFFF7FDBF00BF01B572B60B4A106A3C
:10E7D00000281EBF0021116205F012FE62B6EFF3A1
:10E7E0000580A0F110004FEAC0000549014409C9A5
:10E7F0009847BDE80140034908470000D00D0020BC
:10E80000444901007DE80000002080F31488BFF334
:10E810006F8F002080F30A8880F30B8803F0CEFF0F
:10E8200000200E490860BFF34F8F0D4880F3088821
:10E8300000F028F9202080F311880A484FF4006185
:10E84000401880F30988EFF314800221084380F315
:10E850001488BFF36F8FFFF73BFF000094ED00E0DB
:10E8600088320020C8330020EFF30880EFF30981DD
:10E8700001B5724600F064F801BD00BF044B996811
:10E88000586A884203D003494FF080520A607047AB
:10E89000D00D002004ED00E00E4B9A6A9A6A9A6A45
:10E8A000920708D55A6B9A6A120604D518B19A6A6B
:10E8B00022F080029A620020064B9A6A9A6A9A6A4B
:10E8C000D20658BF9A6A9A6A42F0FF029A620870AA
:10E8D000704700BF00ED00E00D4B9A6A9A6A9A6A91
:10E8E000920508D59A6B9A6A120404D518B19A6AEF
:10E8F00022F400429A620020054B9A6A9A6AD20575
:10E9000058BF9A6A9A6A42F47F429A6208707047C6
:10E9100000ED00E0094B9A6A9A6A986A9A6A9A6AC4
:10E920009A6A9A6A9A6A10F480106FEA02426FEA51
:10E93000124218BF02209A62704700BF00ED00E04B
:10E9400070B5364B0E465B6800258AB0C3F30803EA
:10E9500085F31188BFF36F8F02F07F41B1F17F4FD4
:10E9600011D102F00C0108290DD0110701D406467F
:10E9700001250022033B8DF80720032B47D8DFE851
:10E9800003F0043E423B2E46F3E7244BDA6A92073B
:10E990003DD4DC6A14F0804408D028331B78EBB1F6
:10E9A00001200DF10701FFF777FF04469DF80730BE
:10E9B00093B92022314602A804F0BCF8099B45B364
:10E9C000C3F3080222B96FEA53236FEA4323099382
:10E9D000204602A904F04FF80AB070BD104B1B7816
:10E9E0002BB101200DF10701FFF776FFDDE70D4B9D
:10E9F000188884B2002CD9D0FFF78CFFD5E700200F
:10EA00000DF10701CFE700200DF10701ECE700242D
:10EA1000CCE723F4FF7323F00103D8E700ED00E017
:10EA200029ED00E02AED00E0044B5A6942F01002A3
:10EA30005A615A6942F480625A61704700ED00E001
:10EA4000BFF34F8F0549064BCA6802F4E0621343D7
:10EA5000CB60BFF34F8F00BFFDE700BF00ED00E0CC
:10EA60000400FA0500231846054A1168C1F307217E
:10EA70008B4200D17047936010610133F8E700BF0B
:10EA800090ED00E010B572B6002484F31388FFF710
:10EA9000E9FF0E4A234611464FF0FF3403F12000F0
:10EAA0000133102B42F82040F8D100234FF0FF3003
:10EAB00003F160020133102B41F82200F8D162B655
:10EAC000BFF34F8FBFF36F8F10BD00BF00E100E0B9
:10EAD000002320210348C2180133412B82F8001380
:10EAE000F9D1704700E100E0064B9B68834207D1F3
:10EAF000EFF3058323B1044A536843F08053536016
:10EB000002F03EBED00D002000ED00E01FB5094C24
:10EB1000094A23460121094800F0DCF80023039349
:10EB2000074B0121E41A01A80193029400F0DCF8DC
:10EB300004B010BD0000042000000020444C01007F
:10EB4000A802002010B50B680C7A23F01F0204F015
:10EB50001F031A43CB68640923F01F03044943EAE7
:10EB6000440343F001038860CA600B6110BD00BF1D
:10EB700090ED00E02DE9F04F8846144606464FF030
:10EB800000094A4D85B0C14505DA7768BFB31F2F2C
:10EB900005D86FF01504204605B0BDE8F08FFB06E0
:10EBA000F7D1D6F800A01AF01F0FF2D1504603F0AB
:10EBB0006FFF834607EB0A00013803F069FF8345C6
:10EBC000E7D11BF1160FE4D0631E5B45E1DBC5F80E
:10EBD00008B0E968C5F808B02F6921F01F01D6E92F
:10EBE00000321A44994247F01F0702F1FF3A1CD144
:10EBF000574508D131465FFA8BF003F052FF09F117
:10EC000001090C36BFE73146C5F808B0EB6822F0C1
:10EC10001F0203F01F031A43EA60E0B203F041FF52
:10EC200010F1160FB5D0441CE9E7013B5745E0B29F
:10EC300023F01F03C5F808B006D12A69314602F057
:10EC40001F0213432B61E9E7296901F01F010B4300
:10EC50002B61314603F025FF10F1160F99D0C5F84E
:10EC600008B0EA689DF80830013F62F304038DF8AC
:10EC700008302B699DF808205B0863F347128DF874
:10EC80000820D6E900321344009323F01F033B44CD
:10EC9000441CA3EB0A0AE0B22AF01F030F280393D7
:10ECA0003FF677AF6946FFF74DFFBCE790ED00E018
:10ECB0000522034B5A60BFF34F8FBFF36F8F70472E
:10ECC00090ED00E0BFF35F8F0022014B5A60704768
:10ECD00090ED00E010B5034C2278FFF74BFF207059
:10ECE00010BD00BF412E00202DE9F74F264D8A466A
:10ECF00006464FF00008AB46244FD0451BDAD6F845
:10ED00000490B9F1000F39D031680846019103F041
:10ED1000BFFE0199044609EB0100013803F0B8FE7B
:10ED200084424FF014021A4B08D06FF0150302FB17
:10ED300008F84BF8083003B0BDE8F08F14F1160F57
:10ED40002C60F8D01978A142F5DD02FB08B0BC6058
:10ED5000BC60FC6800F10801007B64F304000871EA
:10ED600038690C79400860F347140C71F96821F098
:10ED70001F016960396921F01F01296108F101084B
:10ED800014350C36B9E700BFBC0C002090ED00E054
:10ED9000412E002038B50E4C2568102D14D8FFF7F1
:10EDA00091FF00200B4B0C4A1A63854205D10B4B97
:10EDB0001D70FFF77DFF002038BD616801EB001179
:10EDC000FFF7C0FE0130F0E74FF0FF30F4E700BF7F
:10EDD000504C010090ED00E0AAFF4400412E0020BD
:10EDE000014B1860704700BF4C00002008B5124866
:10EDF000FFF71EFBF0B903F01DFED8B903F026FEA5
:10EE0000C0B9012003F027FEA0B9012003F017FECE
:10EE100080B9072003F0FCFD60B91F2003F0F2FD6C
:10EE200040B9072003F0FFFD20B9BDE808400120EC
:10EE300003F0F4BD08BD00BFC84F0100002200234D
:10EE4000014804F0BFB800BF88020020074BC16131
:10EE50000360074B4360074B8360074BC360074B5E
:10EE60000361074B43618B8983617047D72B010096
:10EE70009D2C01006F2C01003D2C0100172C01007E
:10EE8000ED2B010000234360014B8160036070475C
:10EE9000CF2C0100F0B504460C4E0D4F91B000F19F
:10EEA000100500220023284604F091F8014608B915
:10EEB00011B0F0BD08AB03A8CDE903640593CDF80C
:10EEC00018D0079704F062FDEBE700BF884C010003
:10EED000412D01002DE9F04104461D460F4616461E
:10EEE000DDF818803022002103F04FFE2046C4E9EF
:10EEF0000876C4E90A58044905F058FB04F11000EB
:10EF0000BDE8F04105F0F7BA95EE000013B5002416
:10EF1000064A2346064907480094FFF7DBFF0648E8
:10EF2000FEF796FF204602B010BD00BF2B2E010059
:10EF3000312E0100D80C00203DEF000008B501463D
:10EF4000034805F0E0FABDE80840024802F0BAB80C
:10EF50007802002050000020F8B50D4E0D4F002221
:10EF60000023304601F040FF044600B9F8BD3846A2
:10EF7000D4F80422211D03F081FF05462046FEF748
:10EF8000DBFE002DEBD02946034803F044FFE6E703
:10EF900078020020D00C0020D80C00202DE9F34787
:10EFA0009046DDE90A6740F606120C1E1D464FF03A
:10EFB000020141F2044318BF134682463A46ADF8B7
:10EFC00002300DEB0100B04728BB3CB3022298FA97
:10EFD00098F30DEB020101A8ADF8023003F0AAFD91
:10EFE0009AF8003032468DF8063003213B4601A8DE
:10EFF00003F02AFF78B901204FF006090446A04526
:10F000000FD16DBA3B463246022101A8ADF804503B
:10F0100003F01AFFE0B102B0BDE8F0874FF002093B
:10F02000ECE7A8EB0403012B0AEB040119D10B78E0
:10F0300032468DF804302B0A8DF8053003213B460B
:10F0400001A88DF8065003F0FFFE0028E3D101343B
:10F050003A4601211C48B0470028DCD10C9B1C60BB
:10F06000D9E7022B1CD10B7832468DF804304B784F
:10F0700001A88DF805302B0A8DF8063003213B4698
:10F0800003F0E2FE0028C6D13B463246012101A82A
:10F090008DF8045003F0D8FE0028BCD10234D7E725
:10F0A000032201A803F046FD3B463246032101A896
:10F0B00003F0CAFE0028AED109F10409B9F17B0FB3
:10F0C00004F103049BDDC3E725500100014B03EB72
:10F0D00040107047880200208279044B03EB4213F2
:10F0E000DB69C01A024BC0105843704788020020E9
:10F0F000ABAAAAAA10B5094B827903EB42139B690C
:10F100000A685C6823689A4294BF0A600B60FFF744
:10F11000E3FFD4E9002302FB003010BD8802002089
:10F120002DE9F347054601911046194616461F463C
:10F1300005F097FB804689464FF02003EFF3118AD4
:10F1400083F31188BFF36F8F6B8A002B4FD02A8A0D
:10F150009A423AD900220023284601F045FE04468F
:10F16000002832D08AF31188BFF36F8F019B002BE8
:10F170004DD056EA070310D07B1C08BFB6F1FF3F05
:10F180000BD002F0C1FCB8EB000669EB0107002EC2
:10F1900077F10003BCBF00260027A379DFF8848045
:10F1A000324608EB43139B6920461B6801A91D6882
:10F1B0003B46A8470546206150BBA079214608EB95
:10F1C000401005F0ABF92C461DE0688A431E6B82A7
:10F1D0008AF31188BFF36F8F18232C8A241AE869E9
:10F1E00003FB04040F482D1A6D11A571BEE78AF3C5
:10F1F0001188BFF36F8F32463B46284601F0F4FD7D
:10F2000004460028B2D1204602B0BDE8F087236151
:10F21000002301222360A280A381019A2369E28155
:10F22000A360F0E788020020F8B504460026144DDC
:10F2300004B9F8BD23792768013BDBB22371002BA9
:10F24000F7D1216959B163799B0707D4A379204687
:10F2500005EB43139B691B689B6898472661A0795F
:10F26000A66005EB40135B6926601BB120469847FA
:10F270003C46DDE7214605EB401005F04FF9F7E786
:10F280008802002000F01F02054800EB8200D0F841
:10F29000003223F4403343EA0143C0F800327047A0
:10F2A0000025845008B5094B1A786AB901210D2050
:10F2B00019700521FFF7C6F90D20FFF7A5F94FF0EA
:10F2C0000042034BC3F80423002008BD422E002057
:10F2D00000D00050F7B50E46416806F01F05097AC8
:10F2E000B2F5A03F076945EA41150AD15C4805F02F
:10F2F0001F01803150F82110C80707D56FF0850035
:10F3000093E0B2F5005FF96800F091800121F868A0
:10F31000B1400143F96001217869B140B2F5A03FE5
:10F320000CBF0843884378610020BA69B3F5C02F49
:10F330000CBF0A438A43BA613A69B3F5802F0CBF08
:10F34000114322EA0101474A3961D2F80433DBB2A2
:10F3500000F5A27152F82110C1F304218D426BD146
:10F3600023FA00F1C90767D5830003F1A04303F531
:10F370005043D3F8101521F00101C3F810150123F3
:10F380008340C2F80833C0B200F0B2FD2846002125
:10F39000FFF778FFF868F04010F0010045D0786979
:10F3A000F04010F001044ED0BB690DF10700F340AE
:10F3B000DB0757BF3969032621FA06F606F0010676
:10F3C0005CBFC6F10206F6B200F0B4FD264B9842CF
:10F3D00036D100209DF807102D028B0003F1A043C9
:10F3E00003F55043D3F8102505F4F85522F44732BD
:10F3F00022F44072C3F81025D3F8102515438A0073
:10F4000002F1A04202F5514245EA0646C3F81065F2
:10F4100010601268D3F8102542F00102C3F81025DD
:10F420000123104A8B40C2F8043303B0F0BD012021
:10F43000B04021EA00016DE70130082888D1A5E736
:10F440006FF01200F1E739692846F14001F001013F
:10F45000C1F10301C9B2FFF715FF2046E5E700BF80
:10F460000025845000D000500000AD0B284B70B533
:10F4700046682848134083423BD00DD8062B15D050
:10F4800005D89BB1022B36D06FF0150030E0B3F5F4
:10F49000801FF9D1012309E01F4883422DD0B3F525
:10F4A000A00F2CD0B3F5800FEED10223D0064CBFB5
:10F4B0000325C2F3401582F4807412F4007FC2F376
:10F4C0004020C4F3002406D012F4006F766818D0F0
:10F4D00001228A40B26040EA4402002042EA03234B
:10F4E00001F01F010D4A43EA8503803142F82130C3
:10F4F00070BD0723DAE70423D8E70523D6E7032303
:10F50000D4E7520542BF01228A40F260E3E700BF20
:10F510000600F000060010000200400000258450A4
:10F520002DE9F84F454D2E68002E5BD0444B4FF02F
:10F530000108D3E90520D968024321EA0209414ABA
:10F540004F464FF0000B924614691B695C4029EA54
:10F5500004047FBB2F602B68002301251F463A4817
:10F56000D0F8042305FA03F1114211D09A0002F1F8
:10F57000A04202F55142116851B103F5A27150F851
:10F5800021101760C1F3042105FA01F112680C4340
:10F590000133082BE4D13CBB56B101260027284D8E
:10F5A000EC68D5E905210A4324EA0204002C33D192
:10F5B000BDE8F88F18EA070F0FD018EA090F0BF013
:10F5C0001F0008BF00F180034FF0000108BF5AF888
:10F5D0002330FFF757FE27EA08070BF1010B4FEA2C
:10F5E0004808B6E73446B7E7154B59680029D3D029
:10F5F0000D68164F002D38BF00258A68224002D0C2
:10F6000038464B689847002DC6D02B682946002BFA
:10F6100038BF00231D46F0E726420CD0296907F0C9
:10F620001F00F94001F00101C1F10301C9B2FFF768
:10F6300029FE24EA060401377600B7E77CD10050A2
:10F640000C0D00200025845000D00050DC0100206B
:10F6500010B50446002201210A20FEF7F3FF60687E
:10F660002369064A00F1080100F09CFC044B984213
:10F6700014BF6FF00F00002010BD00BF85F6000022
:10F680000000AD0B0378012B08D0022B08D04BB93A
:10F69000054B0B6201F1100001F0DABB034BF8E7F8
:10F6A000034BF6E7034BF4E70000AD0B0100AE0B94
:10F6B0000200AE0B0100AD0B2DE9F04F1E460469B0
:10F6C00089B0238D0546894692460021142203A85D
:10F6D000D4F82C80009303F058FA8DF80D604FF0A9
:10F6E000FF324FF0FF33204601F0D4FB2869103081
:10F6F00000270022002301F0CDFB686800F098FC91
:10F700004E463C46DFF824B1574501D300242EE095
:10F71000317A0B077FD4009B6BB17B1C53450AD217
:10F72000880708D4337D81EA030202F0010203F066
:10F730000403134325D0002C3CD1002433680693E6
:10F7400073680493337A686803F0010213F0020FC0
:10F750008DF80C2003A90CBF2022002200F096FC9B
:10F76000584529D0304B98425BD06FF0040468684C
:10F7700000F06EFC286901F06BFB204609B0BDE883
:10F78000F08F01237268009802EB040C844545D881
:10F79000C90706D4316808EB0400019303F0CAF9E5
:10F7A000019B7268144403BB002CC6D0CDF81880AE
:10F7B0000494C7E70023E5E7286910304FF480423E
:10F7C000002301F067FB40B1686800F041FC6B6802
:10F7D000D3E9020100F09AFEC7E72B691B6A5B457B
:10F7E000C3D1337ADB0703D4002401370C368BE70F
:10F7F000069B9845F8D10C2303FB07935A680C3BF2
:10F800009442F1D3A41AD86808EB0401019303F0E1
:10F8100091F9019BF2E76FF08504A8E76FF01B04F4
:10F82000A5E76FF00F04A2E70B00AD0B0000AD0BD6
:10F83000F0B54B79012B2AD0032B25D110268B79DB
:10F84000032B21D1CC792CB1012C1DD143685B68ED
:10F850009B0719D00A7912B1022A15D10E220B6822
:10F860004568B3F5164F2D6865D02DD8B3F5165FF2
:10F8700064D016D8B3F5966F62D00AD8B3F5967FE8
:10F8800061D0B3F5167F61D06FF0850052E000269D
:10F89000D5E7B3F5166F5CD0B3F5965FF4D1374B6F
:10F8A0003CE0B3F5E14F57D007D8B3F5615F55D0D1
:10F8B000B3F5964FE8D1324B30E047F61227BB4202
:10F8C000E2D14FF4000329E0B3F5613F48D013D8EB
:10F8D000B3F5963F47D009D84DF6C027BB4244D078
:10F8E000B3F5614FD0D14FF46B0317E0B3F5E13FAF
:10F8F000CAD14FF0EB7311E0B3F5612F38D008D8BF
:10F90000204FBB4237D0B3F5E12FBDD14FF0E863B4
:10F9100004E01D4FBB42B7D14FF08053C5F82435EA
:10F92000036934432243043303C9C5F86C2583E8D3
:10F9300003000020F0BD4FF41D03EFE7134BEDE78C
:10F940004FF49E23EAE74FF4A033E7E74FF41C336C
:10F95000E4E74FF41D23E1E70D4BDFE70D4BDDE757
:10F960004FF06C73DAE70C4BD8E74FF46503D5E73B
:10F970004FF07063D2E74FF08063CFE700B0130021
:10F9800000A04E0090D0030040420F00005027001E
:10F9900000C0750000F03A0000903A01F8B5054645
:10F9A0000F46066904F021FD10B9204B1B7883B97E
:10F9B0004FF02003EFF3118483F31188BFF36F8FAF
:10F9C000284603F024FC28BB84F31188BFF36F8F13
:10F9D000EEE76424284603F01AFC70B9012003F016
:10F9E0002CFD013CF6D10021212001F091FEF0E731
:10F9F00084F31188BFF36F8FF5E74FF02003EFF327
:10FA0000118483F31188BFF36F8F284603F0FFFB47
:10FA10000028EDD031460122284601F8147F03F07A
:10FA200089FC84F31188BFF36F8FF8BD832E00200B
:10FA300043682DE9F0411C68002306690F46C4F8AD
:10FA400000350546306008680121424B00F01F0276
:10FA5000914099600321803243F822107A68511C4A
:10FA60001FBF4FF00C0C02F01F01803143F821C082
:10FA7000B968C4F80C05481C18BF0C20C4F814253C
:10FA80001EBF01F01F02803243F82200F868421CBA
:10FA90000CD04FF0010C00F01F020CFA02FCC3F86E
:10FAA00008C04FF0030C803243F822C0C4F80805A8
:10FAB000C4F81015296928460431FFF7B9FE8046BD
:10FAC000002841D16B685B68190713D506F1160051
:10FAD00000F0E4F9204B984239D1B37D43F0004364
:10FAE000C4F8A031C4F88C300123B27D93401B4A86
:10FAF000C2F804350823C4F800357B6801330CD004
:10FB00000023C4F81031D4F8103106F11503C4F8FD
:10FB100034350123C4F8383523606B6814365B68CC
:10FB20001A075CBF4FF48072C4F80423DB0644BF9D
:10FB30004FF48003C4F804330023C4F84465C4F8C8
:10FB400048350123A360E3604046BDE8F0816FF0D3
:10FB50000408F9E7002584500000AD0B0070015047
:10FB600030B585B06C460546084B0FCB84E80F00D6
:10FB7000002201210820FEF765FD0820FEF744FD64
:10FB800021462846FFF754FF05B030BD904B0100D9
:10FB900030B585B06C460546084B0FCB84E80F00A6
:10FBA000002201210920FEF74DFD0920FEF72CFD62
:10FBB00021462846FFF73CFF05B030BDA04B0100B1
:10FBC000054B1868043B1B68092B03D1431E5842A0
:10FBD00058417047002070473401FF0008B5474B7B
:10FBE0001B68092B01BF4FF050230022C3F81421DA
:10FBF000C3F81821FFF7E4FF30B10123404A136036
:10FC0000A2F63822C2F878353C4B1B68092B07D185
:10FC10003C4B1B68012B1EBF01223B4BC3F87825D0
:10FC2000FFF7CEFF10B10E22384B1A60334B1B6822
:10FC3000092B04D10022364B1A6001225A6000229F
:10FC4000D30003F57F03D3F80013013108D0D3F8B4
:10FC500000130132D3F80433B2F5807F0B60EFD18B
:10FC60002C4BDA69D1073BD52B4B1946D3F800242E
:10FC7000012AFBD1C3F80425D1F80034012BFBD1B4
:10FC8000244BDA69D20708D5DA69234922F0010248
:10FC9000DA61D1F80024012AFBD11A6A01320AD1B3
:10FCA0001A6A22F0FF0242F020021A621A4AD2F8BF
:10FCB0000034012BFBD10022174BC3F80425D3F8E5
:10FCC0000024012AFBD1BFF34F8F1449144BCA689B
:10FCD00002F4E0621343CB60BFF34F8F00BFFDE738
:10FCE0001B6A0133C0D00D4AD2F88C3043F4406314
:10FCF000C2F88C300B4B0C4A1A6008BD3001FF0073
:10FD0000384A00503401FF0000400050E4AE035078
:10FD10000C4700500080FF000090035000ED00E011
:10FD20000400FA05E80000200090D003044B1A7983
:10FD300022B9012218601A710248704702487047C0
:10FD4000340D00200000AD0B0C00AD0B10B10128EC
:10FD500020D070474FF05022D2F81834D2F818143F
:10FD6000C90311D503F00303022B0DD1C2F81835D6
:10FD700000220D4B1A601B6802224FF05023C3F87B
:10FD8000042301229A6070474FF050230122C3F8E8
:10FD90001825EDE70022054B1A601B684FF0502331
:10FDA000C3F804031860704704510050005100501C
:10FDB00038B510B1012818D038BD4FF050230222B9
:10FDC000012142F210751C46C3F80823154A106041
:10FDD0001268154A1160D4F81834DB03ECD5012001
:10FDE00003F02BFB013DF6D1E6E74FF05024002253
:10FDF00042F210750D4BC4F808031A601B680C4BD7
:10FE00001860D4F80C34D4F80C2403F00103D203A6
:10FE1000D2D5002BD0D0012003F00FFB013DF0D153
:10FE2000CAE700BF045100500C5000500051005070
:10FE300004500050164B10B51A6852B100201860DB
:10FE40001B6801224FF05023C3F80823114B1B6895
:10FE50009847114B1A688AB100221A601B684FF04C
:10FE60005023D3F81824D3F8181402F00302012AFF
:10FE70004FF0020103D1C3F818159A6010BDC3F802
:10FE80000813044B0120BDE810401B68184700BF51
:10FE900000510050340D002004510050F0B54FF0D7
:10FEA0002003EFF3118783F31188BFF36F8F0D4A9F
:10FEB0001668F14389B291B10025ECB221FA04F33E
:10FEC000DB0705F10105F8D50123A3403343047096
:10FED0000548136087F31188BFF36F8FF0BD0348A7
:10FEE000F8E700BF3C0D00200000AD0B0200AD0B99
:10FEF000012303FA00F010F0FF0F12D04FF020039F
:10FF0000EFF3118183F31188BFF36F8F064AD36C2F
:10FF100023EA0000D06481F31188BFF36F8F034898
:10FF200070470348704700BF400D00200000AD0B34
:10FF30000400AD0B2DE9F041FF2200240126054607
:10FF4000DFF858E01448DFF85880E3B24FF02001A2
:10FF5000EFF3118C81F31188BFF36F8F22FA03F155
:10FF6000C9070AD5DEF84C1006FA03F7394201BF7B
:10FF700040463943CEF84C102B708CF31188BFF3F8
:10FF80006F8F404505D006FA03F39A4304F101044C
:10FF9000DBD1BDE8F08100BF0200AD0B400D0020B9
:10FFA0000000AD0B4FF0340CF8B506791C4D0CFB7E
:10FFB00006FC05EB0C0494F82D707FBB40F20C6E30
:10FFC000A760636084F82F704B7B84F830700F68F3
:10FFD00084F8323045F80C2007F01F03DFF84CC0DE
:10FFE000803300684CF823E04C6804F01F03803332
:10FFF0004CF823E08B68C0F80875C0F80C45C0F8D1
:020000040001F9
:1000000024351AB140F30730FEF7FEFA342303FB20
:1000100006550123034885F82D30F8BD0248FCE75A
:10002000900D00200000AD0B0500AD0B00258450A5
:10003000062102680379C2F800153421034A01FB46
:100040000323022283F82D20704700BF900D00206B
:100050000268037934200B4900FB031300210A488E
:100060009960C2F80803D2F8000220F4BC50C2F82C
:100070000002C2F80015012283F82F1083F82D200A
:10008000704700BF900D002002029C01342394466B
:1000900000222DE9F047B34F90F804E0046803FB19
:1000A0000E7383F82E204B680D464BB1CB6803F0DE
:1000B0006043B3F1005F03D0AB4E3046BDE8F0873C
:1000C000342606FB0E76A94BC4F8083396F82F3079
:1000D00003F0FF0A23B1B368A54EC4F80433ECE77C
:1000E0001CF0140F0CBF01230023A94686F82F3003
:1000F00006F10C08B9E80F00A8E80F00D9F80030A5
:10010000C6F820C0C8F80030CCF3001386F83030B1
:100110006B78C4F88835C4F804A1D4F80431C4F865
:1001200024A1D4F82431C4F860A1D4F86031C4F813
:1001300048A1D4F848311CF0010318BF0123C4F8CA
:1001400050351CF0020318BF0123C4F840352B784A
:10015000032B00F2B580DFE803F084A069022A696E
:1001600002F06043B3F1005FA6D14FF48073E968F9
:10017000C4F800326B68C4F84415C4F8483500234D
:10018000C4F85031D4F8501101212162A160D4F893
:1001900050110029FBD0C4F85031D4F85031AB686D
:1001A000C4F84425C4F8483534234FF4802203FBB7
:1001B0000E739A6008236F4E1CF0080F07D12A783F
:1001C000032A04D00122E2506B6803B96261342330
:1001D00003FB0EF3FA18FB58002B74D10125D4F859
:1001E0004821D4F80411002940F08780003A18BF54
:1001F0000122D4F82411002900F08580C4F82431AC
:10020000D4F82411D4F86001D4F8001210B111F41C
:10021000007F04D1256265610028E0D00022C90575
:1002200071D5C4F84831D4F84821D8E76B68EA683A
:10023000C4F84425C4F848352B6903F06042B2F194
:10024000005F7FF439AFAA68C4F834354FF48453A3
:10025000C4F83825C4F800323423022203FB0E739D
:1002600012E06B68EA681CF0200FC4F84425C4F85B
:1002700048354FF034030BD04FF48072C4F800229D
:100280004FF4802203FB0E739A600123236291E7EF
:100290004FF40072C4F80022DFE76B68EA68C4F824
:1002A0003425C4F838354FF48053C4F80032342371
:1002B000022203FB0E739A600123236200237AE774
:1002C00008232D4E78E71CF0040F1CBF0023936019
:1002D0001CF0400F06D1342303FB0E739A6842F0E2
:1002E00002029A60342303FB0E77BB6843F4007369
:1002F000BB60BB68C4F80433DFE6C4F80431D4F84B
:100300000421012275E7002A3FF469AF342100205F
:1003100001FB0E72D4F8C434C4F8C43482F82F0040
:100320008BB1164A13F0010F154E18BF164613F085
:10033000020F02F1010218BF164613F0040F114B11
:1003400018BF1E46B9E61CF0400F7FF4B6AE20463B
:100350000EFB017103F07EF8094B002808BF1E4612
:10036000ABE600BF900D00200A00AD0B02029C011D
:100370000B00AD0B0000AD0B0400AD0B0000AE0B8D
:100380000100AD0B0200AE0BF0B55B4B5B4CD3F83C
:1003900024211D4687B0FAB10022C3F82421D3F8E6
:1003A0002421D3F80421BAB9A268C3F80823022291
:1003B000A260A268C3F80423D3F860211AB1D3F86D
:1003C00000329E0503D401224B4B1A625A6101236D
:1003D00084F82E3007B0F0BDD5F80431002B54D08E
:1003E0000023C5F80431D5F80431236A5D060AD428
:1003F00094F82E303BB941493F4803F02BF880F088
:10040000010084F82E00236A13F0040722D13C4E29
:1004100001AD0FCE0FC5336894F830C02B60364B5A
:10042000C3F86071D3F86021C3F85C71D3F85C2124
:10043000BCF1000F02D094F82E205AB10022C3F86C
:100440000022A2602F4AC3F808234FF480622E4B8B
:10045000C3F88021284AD2F8C4349807C2F8C434BB
:100460003CD501238DF8003094F830300BB984F876
:100470002F30236A5B0703D594F82E30002BA9D0C8
:10048000D4E9003168469847A4E7C5F84831D5F863
:100490004831237B83B91A4F01AE0FCF0FC63B689B
:1004A000336094F83030002BD4D1C5F80032A3600B
:1004B000144BC5F80833C8E74FF40073C5F8003291
:1004C00040F20223A36003F1CE73C5F80833A3689A
:1004D000C5F804330123AB602B627BE7590701D5D4
:1004E0000223BFE7DA0701D50323BBE794F82E30D8
:1004F000002BB7D00423B5E700A00050900D0020DA
:100500009C0D002002029C0100E100E02DE9F04179
:10051000012540F20D631C4C01F01F0600F01F0086
:1005200005FA00F806F180028030B540C4F8088072
:10053000A56044F82030042044F8223002F07DFF0A
:10054000092723691D4210D00420E56002F075FFE1
:100550000420A56002F071FF21690C4821FA06F61B
:1005600006F00106801BBDE8F0810420C4F80C8071
:1005700002F063FF013F0420C4F8088002F05DFF31
:1005800017F0FF07DDD1DFE7002584500100AD0B38
:1005900037B50D461446FDF765FB38B16A46044988
:1005A000CDE9005402F01CF903B030BD0520FBE793
:1005B0001B380100F0B51C4987B0054603F05FF910
:1005C000002200230446284603F079FB1749044320
:1005D000284603F054F94FF0FF32044302A928469D
:1005E00003F09DFB00270443384601A903F035F9C9
:1005F000052806460ED030B1284602A903F0A1FB1B
:10060000304607B0F0BD2846019903F038F90137AC
:100610000443E9E7284602A903F093FB54EA0003E8
:100620000CBF00260226EBE7084E0100D54F010063
:10063000F0B5A5B0054600215C220DA802F0A5FA90
:1006400004238DF8343020231F4F04AE0CA905F18C
:100650001C000C970E96169303F0DBF888BB1B4921
:10066000284603F00CF9002300220446284603F034
:1006700026FB39460443284603F001F9314604437A
:10068000284603F0FCF812490443284603F0F7F823
:100690004FF0FF3269460443284603F043FB6A46A5
:1006A0000C4904433046FFF773FF69460646284667
:1006B00003F047FB54EA000318BF0226304625B07A
:1006C000F0BD0326FAE700BFDF4F0100084E01002E
:1006D000E44F010099380100014800F003B800BF61
:1006E000EC000020034B1A6802B9034A106018603E
:1006F000704700BFCC0D0020C80D002002460B4BF8
:1007000030B51B68CC000BB9002030BD5889904231
:100710000AD118898842F7D95D6828192D59002D0A
:10072000F3D14568002DF0D11B68ECE7C80D00201F
:1007300070B5044608480D4602F0D0F90649024655
:10074000204603F0DBFA30B92A462046EB17BDE815
:10075000704003F0B4BA70BD084E010010B4044CF0
:10076000246814B1A44610BC604710BC704700BF99
:10077000C40D00201FB589B1046824686469CDE9FF
:1007800000340DF10F0303F0F1FB28B99DF80F3091
:10079000002B08BF4FF0004004B010BD004CEEE746
:1007A0006D3D01000E4B70B553F82040013053F8F9
:1007B0002060A64200D870BDD4E90035284698478D
:1007C00065B1EB6830B10028B8BF4042FF28A8BF30
:1007D000FF2018705A7842F001025A700834E8E796
:1007E000684D010070B5054610B90024204670BD63
:1007F0000378002BF9D00F4A0F4C1646944208D1CB
:100800000D4CB442F1D0204603F01AFD50B9183413
:10081000F7E7204603F014FD10B12368AB42E5D0A2
:100820001834EBE72846216802F068F90028EED179
:10083000DCE700BF0C0200207C0100200248034AD4
:100840000021121A02F0A1B9A8020020842E002073
:10085000012208B5094B02201A70FFF7A3FF01F02F
:100860008FF90320FFF79EFF00F08AF901F066FB85
:10087000034A137B23F00103137308BD832E00206A
:10088000500500202DE98048374BABB003F50069D7
:1008900089F3088883F30A880024E023334D4FF05E
:1008A000010B85F82230EC772C766C76AC766B6A8F
:1008B0002F4E43F4E0236B62FEF7B6F8FDF762FFBC
:1008C0004FF0FF33AB62EB62FEF764FAFEF71EF9FE
:1008D00040F20113274DADF8243006ABAB60CDE9F3
:1008E000244403F0ACFC2046FFF75CFF0120FFF737
:1008F00059FFDFF898A000F0ADFE1F4B6E624FF479
:1009000080621E49059330465346CDE9034BCDE93D
:100910000144009400F0BEF8737B804623F004038A
:100920003046737303F0DBFE0F23154F4FF4A072B4
:10093000CDE902431349144B3846CDE904B4CDE95F
:10094000005400F0A7F87B7B524623F004037B732E
:1009500005F1180341463046C5E90633EF602C75B2
:10096000C5F80490FDF7A0FEC833002000ED00E0BC
:1009700050050020D00D0020EB4F0100882E0020F4
:10098000C0040020883200203D0C01005108010005
:1009900038B5064C064DAC4201D3002038BD204688
:1009A000D4E9011203F070FC1434F4E728020020AB
:1009B0002802002070B50E4B0E4CA34201D300203C
:1009C00070BDD3E9030141EA000212F003020BD12A
:1009D0009D685A61AA4201D11C33EEE75E6901327B
:1009E0000E6059610144F5E76FF01500E8E700BFBC
:1009F0000C02002028020020D3B50C4616461F46E4
:100A00004FF02003EFF3118183F31188BFF36F8F51
:100A100043695BB123601B68436183690133836170
:100A2000002081F31188BFF36F8F11E056EA0702AF
:100A300003D16FF00B002360F3E70246CDE90067B6
:100A4000083000F049FC18B9024B9B685B692360D1
:100A500002B0D0BDD00D00204FF02003EFF3118184
:100A600083F31188BFF36F8F094A136B834207D159
:100A70001B6F136381F31188BFF36F8F70471346A9
:100A8000002BF7D01A6F8242F9D1026F1A67F1E793
:100A9000D00D00202DE9F04F85B0129E00F15805D1
:100AA00006730426DDE90EA9C0E9165500250446A3
:100AB0001F464673119EDDF840808673D61D26F0D2
:100AC000070601EB060BC0E90655C0E91E16856056
:100AD000C573C0F880505A46CDE90198CDF800A002
:100AE000FDF7C6FDC4E9187AC4E91A9865654FF0A8
:100AF0002003EFF3118283F31188BFF36F8F094B4B
:100B0000196B1C63216782F31188BFF36F8F9B6899
:100B10000BB1D3F884305846C4F8843005B0BDE832
:100B2000F08F00BFD00D0020F0B5002587B00595EF
:100B3000109DDDE9126704950F9D044603950E9DF7
:100B400002950D9D01950C9D0095FFF7A3FF7B1C61
:100B500008BFB6F1FF3F05D056EA070305D120468E
:100B600000F00EFD204607B0F0BD32463B4603497B
:100B700004F1180000F0D6FEF4E700BFFF460100C4
:100B80002DE9F0472A4E2B4DB04686B0B54205F10F
:100B9000300410D300F02EFB4FF4004940F2E7364A
:100BA0000027244CDFF890A0444521D306B0BDE8CF
:100BB000F04700F011BC54F8043C059354F8103C85
:100BC000049354F8143C039354F8183C029354F8DB
:100BD0001C3C019354F8203C009354E90A2354E947
:100BE0000C01FFF757FF54F8303C5D652546CDE713
:100BF000636A5A1C0DD03046394623EAE373C9FBB9
:100C00000301B94208BFB042256804D1284600F06C
:100C1000B7FC3034C8E74FF47A720023FBF792FB3D
:100C200002460B4605F11800514600F07BFEF0E746
:100C30000C0200200C020020FF46010008B5094C00
:100C40004FF02002EFF3118382F31188BFF36F8F0F
:100C500003F0D3FD2062FCF7C1FF0028F0D1FDF7BF
:100C600097FDEDE7D00D00202DE9F341044616462F
:100C70001F464FF02003EFF3118883F31188BFF371
:100C80006F8FC368324A6BB180689168884219D00F
:100C900056EA070318D188F31188BFF36F8F6FF0FE
:100CA0000F000CE0916891F90E100133E360936836
:100CB0002161A36088F31188BFF36F8F002002B019
:100CC000BDE8F0812169F0E790F90E3091F90E103E
:100CD0009942A8BF194621EAE1718B422CDD00F050
:100CE0006DFC054622464146CDE90067194800F0F3
:100CF000F3FA0028E3D04FF02003EFF3118683F3DB
:100D00001188BFF36F8F236821699C4207D033B1EC
:100D100093F90E309942A8BF194621EAE171A06803
:100D200090F90E30994209D16DB13146094800F071
:100D30004FFA6FF00A00C2E70025D3E700F03EFC4F
:100D40000028F2D1F0E786F31188BFF36F8FF0E748
:100D5000D00D0020842E002038B583680446002B77
:100D600037D01F4A9268934236D1DA7B013ADA7360
:100D7000C368012B05D0013BC36000F02DFB0020B0
:100D800038BD4FF02003EFF3118583F31188BFF3D3
:100D90006F8F0169806890F90E30994201D000F0A0
:100DA0000DFC204603F0CDFCA06060B190F90E2050
:100DB00022610022C0F88C2003F091FC29460948EA
:100DC00000F006FAD9E7E06085F31188BFF36F8F72
:100DD000D3E76FF01500D3E74FF0FF30D0E700BF47
:100DE000D00D0020842E0020F7B516461F464FF088
:100DF0002003EFF3118583F31188BFF36F8F04682D
:100E00009CB12368426823F003039442036008BF47
:100E100043600121204603F062FB044685F31188FC
:100E2000BFF36F8F204603B0F0BD56EA0703F5D03D
:100E300000F1080229461046CDE9006700F04CFA9F
:100E40000028EFD1014B9B685C69EBE7D00D0020D7
:100E500038B504464FF02003EFF3118583F3118872
:100E6000BFF36F8F03F06DFC50B10022C0F88C20EF
:100E700003F035FC2946BDE83840054800F0A8B924
:100E8000D4E902329A4218BF0133A360F2E700BFEF
:100E9000842E002037B514461D464FF02003EFF393
:100EA000118183F31188BFF36F8F836843B1013BD6
:100EB000836081F31188BFF36F8F002003B030BDD2
:100EC00054EA050306D181F31188BFF36F8F6FF0E9
:100ED0000F00F3E70246CDE90045024800F0FCF9B7
:100EE000ECE700BF842E00202DE9F04F04464FF0C0
:100EF000FF384FF0FF39494E85B04FF02003EFF334
:100F0000118783F31188BFF36F8FD4F89050D4F812
:100F1000A83085B923F004025D07C4F8A82033D4B3
:100F200000233946CDE90089029304F198023C4838
:100F300000F07CFCE1E7D4F8942029689542C4F8DD
:100F4000901001D1C4F8941043F00203C4F8A83003
:100F5000EB6823F0040343F00103EB606B6887F355
:100F60001188BFF36F8F284698474FF02003EFF3A7
:100F7000118B83F31188BFF36F8FEB68990723F010
:100F800001020BD4EA600EE004F1A0050022012169
:100F9000284603F0FEFB0028F8D1C1E7306823F0B3
:100FA0000303EB6070B9D4F8A83023F00203C4F84F
:100FB000A8308BF31188BFF36F8FD8059DD400F054
:100FC00055FB9AE74FF0000A07685346002F38BFD9
:100FD00000274268014695420ED10168BAF1000F20
:100FE00014D172683160904200D1716040F8083BC2
:100FF000FFF72EFF51460023002FD4D03A68384621
:10100000002A38BF00228A461746E2E7CAF80010D5
:101010007268904208BFC6F804A0E7E7040E0020FB
:10102000842E0020F8B5C36804469A070E46C3F321
:1010300040051FD45F071FD40A680AB982680A6096
:10104000D80742BFA36802253360376858BF01251F
:101050007FB31B4B9B68BB4211D103F0C6F980F0F4
:101060000100C0B2D7F8A830D907C3F3800223D556
:101070003AB140B96FF00F050023336013E0002050
:10108000F0E71B07F6D400232360D7F8943063B948
:10109000C7E92444384603F082FAE36843F00403C6
:1010A000E3603368A3602846F8BD1C60C7F894402D
:1010B000F0E76FF01505DFE76FF01205DCE700BF22
:1010C000D00D00200146014803F079BAE805002060
:1010D000F0B50446002089B0C4E924000E9D04F157
:1010E0009800C4E9260004F1A000C4E928001DB35B
:1010F0002879002840F2011008BF0120C4F8A80098
:1011000000204FF0FF364FF0FF37CDE90330CDE937
:101110000100CDE906672046084B0094FFF704FD67
:1011200025B1296811B1204603F065F9204609B0C0
:10113000BDE8F04003F062B90120DFE7E90E0100ED
:1011400010B5084C23685BB1FDF71EF90346206813
:10115000054A03440021BDE81040136103F05DBB64
:1011600010BD00BF140E0020D00D0020F8B50446BD
:101170000D464FF02003EFF3118683F31188BFF380
:101180006F8F00224FF4004740F2E73000210D4BF3
:10119000E7FB04011A6100234FF47A72FBF7D2F8DF
:1011A000002C094B09DC1860084B1D60FFF7C8FFD5
:1011B00086F31188BFF36F8FF8BD0228B8BF0220F5
:1011C000F1E700BFD00D0020140E0020100E00200B
:1011D00049B9EFF3058030B9054B5A6A9B689A42CA
:1011E00001D0FDF7F5B981F31188BFF36F8F704718
:1011F000D00D00204FF02003EFF3118183F311880D
:10120000BFF36F8F044B9A68D37B013BD37381F399
:101210001188BFF36F8F7047D00D002038B502469C
:101220000C4803F025FA0C4D044600B9EC68AB6895
:101230004AB95A7BD20606D1A26922B9DA897F2A35
:1012400001D96B6238BD9C4201D0FFF779FF6C6217
:10125000F8E700BFF80D0020D00D002008B590F988
:101260000D200146002A437B04DA03F07F03437319
:1012700003F0C2F9044B9868431A58425841BDE83C
:101280000840FFF7CBBF00BFD00D00202DE9F04193
:10129000064614461D464FF02003EFF3118783F3F3
:1012A0001188BFF36F8F03F0EDF987F31188BFF357
:1012B0006F8F6B1C08BFB4F1FF3F08D022462B464E
:1012C00006F118000349BDE8F04100F02BBBBDE872
:1012D000F08100BFFF46010010B50C46064B1146D9
:1012E0009868064B1860DDE90223FFF7CFFF204620
:1012F000BDE81040FDF76CB9D00D00200C0E0020A9
:101300002DE9F04105460F4603F0A1FA04464FF0DF
:101310002003EFF3118883F31188BFF36F8F124E10
:10132000124BB0682C441860FFF798FFB068104962
:101330002A463B46183000F0F5FAB2684046537B27
:10134000002543F010035373FDF742F903F07FFAD1
:10135000241A65F10005002C75F10003B8BF0024C4
:101360002046BDE8F08100BFD00D00200C0E00200B
:10137000FF46010070B50446183003F028FA4FF01C
:101380002003EFF3118683F31188BFF36F8F94F975
:101390000D20637B002A05DA03F07F032046637388
:1013A00003F02AF90B4D637BA86843F010036373C5
:1013B000031B58425841FFF731FF86F31188BFF3F2
:1013C0006F8FAB68A34203D1BDE8704003F046B90C
:1013D00070BD00BFD00D002010B54FF02003EFF31B
:1013E000118483F31188BFF36F8F084B00209A6834
:1013F000D37B0133D373FFF711FF84F31188BFF35D
:101400006F8FBDE8104003F029B900BFD00D002058
:1014100070B590F90D200146002A437B04DA03F0F1
:101420007F03437303F0E8F8174A4B7B104663F0E1
:101430007F034B7350F8283FD56A834208BF0023CF
:10144000002B38BF0023CBB191F90E6093F90E4009
:10145000A6420FD0A41B002C0CDD5868C1E9003057
:10146000016059609068BDE87040431A5842584185
:10147000FFF7D4BEAB4201D01B68E4E7C1E9000529
:101480002960D162EEE700BFD00D0020014670B5A3
:101490004FF02003EFF3118483F31188BFF36F8FB4
:1014A000164B174A98681568A8421D4606D1FFF7E3
:1014B00047FE84F31188BFF36F8F70BD002616605E
:1014C000104A1268BAB1C2897F2A14D8427BD20668
:1014D00011D10D4A90F90E60126896420BDB0B4A4F
:1014E000904208D01A698A4202DCFFF791FFDEE7DA
:1014F000521A1A61DDE700232B61DAE7D00D0020D4
:101500000C0E0020140E0020100E0020C00400203D
:1015100070B490F90D30427B002B2DDBD3062BD11C
:1015200083694BBB154962F07F0242730A4652F849
:10153000284FCD6A944218BF2346002B38BF0023A2
:10154000ABB190F90E6093F90E40A6420BD0A41BEC
:10155000002C08DD5A68C0E9003210605860002095
:1015600070BCFFF75BBEAB4201D01B68E8E7C0E987
:1015700000252860C862F2E770BC7047D00D0020DB
:1015800010B54FF02002EFF3118482F31188BFF3FE
:101590006F8F427B510704D484F31188BFF36F8FA0
:1015A00010BD22F004024273FFF7B2FF2146BDE8EE
:1015B00010400148FFF70CBE842E0020F8B5044609
:1015C0004FF02003EFF3118683F31188BFF36F8F81
:1015D000437B49B2DA0638D18569002D35D103F055
:1015E0007F03437303F008F8437B817363F07F0349
:1015F00043731748034653F8287F9F4218BF3D4660
:10160000002D1A462B4638BF0023C76AC3B193F991
:101610000E50A94210D06D1A002D0DDD5A68C4E994
:10162000003214605C600120FFF7F8FD012086F3B2
:101630001188BFF36F8FF8BDBB4201D01B68E5E78F
:10164000C4E900273C60C462EDE70020A173EEE727
:10165000D00D00200021044B084603F12802C3E905
:101660000A22FFF783BD00BFD00D00202649F8B540
:101670008A68264B9A423DD04FF02003EFF3118544
:1016800083F31188BFF36F8F8868437B03F07F0378
:10169000437302F0B1FF08468A68537B63F07F030F
:1016A000537350F8283FCE6A834208BF0023002BB3
:1016B00038BF0023CBB192F90E7093F90E40A742C8
:1016C0000FD0E41B002C0CDD5968C2E900310A6020
:1016D0005A600120FFF7A2FD2846BDE8F840FCF75C
:1016E00077BFB34201D01B68E4E7C2E9000632606D
:1016F000CA62EEE74FF02003EFF3118083F3118805
:10170000BFF36F8FE9E700BFD00D0020C0040020B9
:10171000B1F1FF3F08BFB0F1FF3F08B502460B46ED
:1017200006D10B4B9868FFF725FE4FF0FF3008BD40
:1017300013430AD1FFF79AFF00204FF47A7380FB1E
:101740000323D00B40EA4340F1E7FFF7D9FDF4E76C
:10175000D00D0020014B9868704700BFD00D0020CD
:10176000EFF305833BB9054B9B68D8897F288CBF75
:101770000020012070470020704700BFD00D0020DE
:101780002DE9F04104464FF02003EFF3118683F377
:101790001188BFF36F8F437B1A0705D586F3118835
:1017A000BFF36F8FBDE8F08123F0200242F0080103
:1017B000D20923D14173A36813B1204602F024FF5C
:1017C00004F1180003F003F84FF0000804F1580783
:1017D000A56DBD4200D0CDB90120FFF71FFD204609
:1017E000FFF73AF9104B9B68A342D7D1EFF305837B
:1017F000002BD3D13046FCF7EBFECFE703F05F03BD
:1018000043F00803437302F0F7FED4E7284602F0E2
:10181000FBFE05F1180002F0DAFF2846C5F88C80BF
:10182000FFF776FED4E700BFD00D0020D3B5DDE989
:101830000667089CCDE90067FFF74EFD1CB1034B1E
:101840009B685B69236002B0D0BD00BFD00D002053
:1018500008B50648064A0749121A01F06BF9BDE8B7
:101860000840054A0549064801F064B90000002017
:10187000A80200203050010000000000305001009C
:1018800000000020034B1B680BB9FCF77DBD002056
:10189000704700BF180E002030B5036868B10A4ACF
:1018A0005268904209D043B1D3E90421D0E90445FC
:1018B000121945EB0101C3E90421426813605A6023
:1018C0000023C0E9003330BD0801002038B5134BB8
:1018D0001C689C4208BF0024FFF7D4FF0546BCB13A
:1018E000D4E90401401B61EBE571012871F10003AB
:1018F00011DB6FF000420023824273EB010400DA37
:101900001046074B1B6913B19842A8BF184638BD53
:101910006FF00040F5E70020F3E700BF080100206A
:10192000D00D0020B3F1FF3F08BFB2F1FF3F2DE91A
:10193000F74F044692469B4673D081604FF02003D8
:10194000EFF3118583F31188BFF36F8F6FF00103FD
:101950004FF0FF32B3EB0A0862EB0B09B8F1000F4E
:1019600079F100011CDB3048D0E900105B1A62EB12
:101970000002B3EB0A0662EB0B07012E77F10003BE
:10198000BCBF01260027C4E90467284AD2E9003C0D
:1019900093421ED1C4E9002CCCF8004054602DE0E5
:1019A000FFF770FF1AF1010300934BF1000301935D
:1019B000DDE90023121843EBE073C4E90423E4E7F4
:1019C000B6EB080067EB09016345C4E90401E1D007
:1019D0001B68002BDED0D3E90489D4E904674645AF
:1019E00077EB0901ECDAB8EB060069EB0701C3E914
:1019F00004015968C4E900310C605C6013689342CB
:101A00000BD09C4209D1FFF761FF18B1084B1B694D
:101A1000834202D00021FCF785FC85F31188BFF3D7
:101A20006F8F03B0BDE8F08FE005002008010020B3
:101A3000D00D00202DE9F74F0646FFF727FD4FF0A8
:101A40002003EFF3118483F31188BFF36F8FDFF866
:101A5000B0A02A4D5146DFF8ACB02E60D5F800C0DA
:101A6000DBF800006246DAE90089D3175845CDE972
:101A700000230DD060B1D0E90467B445BB411DDA45
:101A8000009BB6EB030C019B67EB0306C0E904C6A1
:101A90000026009B2E6013EB0802019B43EB090319
:101AA000C1E90023FFF712FF3146FCF73BFC84F34A
:101AB0001188BFF36F8F03B0BDE8F08F00220023C1
:101AC00018EB060849EBE679C0E90423ACEB0606FF
